{
  "_format": "hh-sol-artifact-1",
  "contractName": "Marketplace",
  "sourceName": "contracts/Marketplace.sol",
  "abi": [
    {
      "anonymous": false,
      "inputs": [
        {
          "indexed": false,
          "internalType": "address",
          "name": "contractAddress",
          "type": "address"
        }
      ],
      "name": "CollectionAdded",
      "type": "event"
    },
    {
      "anonymous": false,
      "inputs": [
        {
          "indexed": false,
          "internalType": "uint256",
          "name": "itemId",
          "type": "uint256"
        },
        {
          "indexed": false,
          "internalType": "address",
          "name": "nftContract",
          "type": "address"
        },
        {
          "indexed": false,
          "internalType": "uint256",
          "name": "tokenId",
          "type": "uint256"
        }
      ],
      "name": "ItemAdded",
      "type": "event"
    },
    {
      "anonymous": false,
      "inputs": [
        {
          "indexed": false,
          "internalType": "uint256",
          "name": "itemId",
          "type": "uint256"
        },
        {
          "indexed": false,
          "internalType": "address",
          "name": "nftContract",
          "type": "address"
        },
        {
          "indexed": false,
          "internalType": "uint256",
          "name": "tokenId",
          "type": "uint256"
        },
        {
          "indexed": false,
          "internalType": "uint256",
          "name": "price",
          "type": "uint256"
        }
      ],
      "name": "ItemListed",
      "type": "event"
    },
    {
      "anonymous": false,
      "inputs": [
        {
          "indexed": false,
          "internalType": "uint256",
          "name": "itemId",
          "type": "uint256"
        },
        {
          "indexed": false,
          "internalType": "address",
          "name": "nftContract",
          "type": "address"
        },
        {
          "indexed": false,
          "internalType": "uint256",
          "name": "tokenId",
          "type": "uint256"
        },
        {
          "indexed": false,
          "internalType": "uint256",
          "name": "price",
          "type": "uint256"
        },
        {
          "indexed": false,
          "internalType": "address",
          "name": "seller",
          "type": "address"
        },
        {
          "indexed": false,
          "internalType": "address",
          "name": "buyer",
          "type": "address"
        }
      ],
      "name": "ItemSold",
      "type": "event"
    },
    {
      "anonymous": false,
      "inputs": [
        {
          "indexed": false,
          "internalType": "uint256",
          "name": "itemId",
          "type": "uint256"
        },
        {
          "indexed": false,
          "internalType": "address",
          "name": "buyer",
          "type": "address"
        },
        {
          "indexed": false,
          "internalType": "uint256",
          "name": "price",
          "type": "uint256"
        }
      ],
      "name": "OfferSent",
      "type": "event"
    },
    {
      "anonymous": false,
      "inputs": [
        {
          "indexed": true,
          "internalType": "address",
          "name": "previousOwner",
          "type": "address"
        },
        {
          "indexed": true,
          "internalType": "address",
          "name": "newOwner",
          "type": "address"
        }
      ],
      "name": "OwnershipTransferred",
      "type": "event"
    },
    {
      "inputs": [
        {
          "internalType": "uint256",
          "name": "_itemId",
          "type": "uint256"
        },
        {
          "internalType": "uint256",
          "name": "_offerId",
          "type": "uint256"
        }
      ],
      "name": "acceptOffer",
      "outputs": [],
      "stateMutability": "payable",
      "type": "function"
    },
    {
      "inputs": [
        {
          "internalType": "address",
          "name": "_contractAddress",
          "type": "address"
        }
      ],
      "name": "addCollection",
      "outputs": [],
      "stateMutability": "nonpayable",
      "type": "function"
    },
    {
      "inputs": [
        {
          "internalType": "address",
          "name": "_contractAddress",
          "type": "address"
        },
        {
          "internalType": "uint256",
          "name": "_tokenId",
          "type": "uint256"
        }
      ],
      "name": "addItem",
      "outputs": [],
      "stateMutability": "nonpayable",
      "type": "function"
    },
    {
      "inputs": [
        {
          "internalType": "uint256",
          "name": "_itemId",
          "type": "uint256"
        }
      ],
      "name": "buyItem",
      "outputs": [],
      "stateMutability": "payable",
      "type": "function"
    },
    {
      "inputs": [],
      "name": "collectionCount",
      "outputs": [
        {
          "internalType": "uint256",
          "name": "",
          "type": "uint256"
        }
      ],
      "stateMutability": "view",
      "type": "function"
    },
    {
      "inputs": [
        {
          "internalType": "address",
          "name": "",
          "type": "address"
        }
      ],
      "name": "collectionExists",
      "outputs": [
        {
          "internalType": "bool",
          "name": "",
          "type": "bool"
        }
      ],
      "stateMutability": "view",
      "type": "function"
    },
    {
      "inputs": [],
      "name": "feePercentage",
      "outputs": [
        {
          "internalType": "uint256",
          "name": "",
          "type": "uint256"
        }
      ],
      "stateMutability": "view",
      "type": "function"
    },
    {
      "inputs": [
        {
          "internalType": "uint256",
          "name": "",
          "type": "uint256"
        }
      ],
      "name": "idToCollection",
      "outputs": [
        {
          "internalType": "address",
          "name": "",
          "type": "address"
        }
      ],
      "stateMutability": "view",
      "type": "function"
    },
    {
      "inputs": [
        {
          "internalType": "uint256",
          "name": "",
          "type": "uint256"
        }
      ],
      "name": "idToItem",
      "outputs": [
        {
          "internalType": "address",
          "name": "contractAddress",
          "type": "address"
        },
        {
          "internalType": "address",
          "name": "owner",
          "type": "address"
        },
        {
          "internalType": "uint256",
          "name": "tokenId",
          "type": "uint256"
        },
        {
          "internalType": "uint256",
          "name": "price",
          "type": "uint256"
        },
        {
          "internalType": "bool",
          "name": "forSale",
          "type": "bool"
        }
      ],
      "stateMutability": "view",
      "type": "function"
    },
    {
      "inputs": [],
      "name": "itemCount",
      "outputs": [
        {
          "internalType": "uint256",
          "name": "",
          "type": "uint256"
        }
      ],
      "stateMutability": "view",
      "type": "function"
    },
    {
      "inputs": [
        {
          "internalType": "uint256",
          "name": "",
          "type": "uint256"
        },
        {
          "internalType": "address",
          "name": "",
          "type": "address"
        }
      ],
      "name": "itemIdToBuyerToPrice",
      "outputs": [
        {
          "internalType": "uint256",
          "name": "",
          "type": "uint256"
        }
      ],
      "stateMutability": "view",
      "type": "function"
    },
    {
      "inputs": [
        {
          "internalType": "uint256",
          "name": "",
          "type": "uint256"
        }
      ],
      "name": "itemIdToOfferCount",
      "outputs": [
        {
          "internalType": "uint256",
          "name": "",
          "type": "uint256"
        }
      ],
      "stateMutability": "view",
      "type": "function"
    },
    {
      "inputs": [
        {
          "internalType": "uint256",
          "name": "",
          "type": "uint256"
        },
        {
          "internalType": "uint256",
          "name": "",
          "type": "uint256"
        }
      ],
      "name": "itemIdToOfferIdToBuyer",
      "outputs": [
        {
          "internalType": "address",
          "name": "",
          "type": "address"
        }
      ],
      "stateMutability": "view",
      "type": "function"
    },
    {
      "inputs": [
        {
          "internalType": "uint256",
          "name": "_itemId",
          "type": "uint256"
        },
        {
          "internalType": "uint256",
          "name": "_price",
          "type": "uint256"
        }
      ],
      "name": "listItem",
      "outputs": [],
      "stateMutability": "nonpayable",
      "type": "function"
    },
    {
      "inputs": [],
      "name": "owner",
      "outputs": [
        {
          "internalType": "address",
          "name": "",
          "type": "address"
        }
      ],
      "stateMutability": "view",
      "type": "function"
    },
    {
      "inputs": [],
      "name": "renounceOwnership",
      "outputs": [],
      "stateMutability": "nonpayable",
      "type": "function"
    },
    {
      "inputs": [
        {
          "internalType": "uint256",
          "name": "_itemId",
          "type": "uint256"
        }
      ],
      "name": "sendOffer",
      "outputs": [],
      "stateMutability": "payable",
      "type": "function"
    },
    {
      "inputs": [
        {
          "internalType": "address",
          "name": "",
          "type": "address"
        },
        {
          "internalType": "uint256",
          "name": "",
          "type": "uint256"
        }
      ],
      "name": "tokenExists",
      "outputs": [
        {
          "internalType": "bool",
          "name": "",
          "type": "bool"
        }
      ],
      "stateMutability": "view",
      "type": "function"
    },
    {
      "inputs": [
        {
          "internalType": "address",
          "name": "newOwner",
          "type": "address"
        }
      ],
      "name": "transferOwnership",
      "outputs": [],
      "stateMutability": "nonpayable",
      "type": "function"
    },
    {
      "inputs": [],
      "name": "withdrawFees",
      "outputs": [],
      "stateMutability": "nonpayable",
      "type": "function"
    }
  ],
  "bytecode": "0x60806040523480156200001157600080fd5b5062000032620000266200003f60201b60201c565b6200004760201b60201c565b600180819055506200010b565b600033905090565b60008060009054906101000a900473ffffffffffffffffffffffffffffffffffffffff169050816000806101000a81548173ffffffffffffffffffffffffffffffffffffffff021916908373ffffffffffffffffffffffffffffffffffffffff1602179055508173ffffffffffffffffffffffffffffffffffffffff168173ffffffffffffffffffffffffffffffffffffffff167f8be0079c531659141344cd1fd0a4f28419497f9722a3daafe3b4186f6b6457e060405160405180910390a35050565b612dc9806200011b6000396000f3fe60806040526004361061011f5760003560e01c80639af03d0f116100a0578063accd006011610064578063accd0060146103bb578063d57f966b146103f8578063e7fb74c714610423578063e93b7b7d1461043f578063f2fde38b1461047c5761011f565b80639af03d0f146102ac5780639e3d83a2146102e9578063a001ecdd14610326578063a174e77a14610351578063a36701a91461037a5761011f565b806381257bd5116100e757806381257bd5146101d657806386ff72ca146101f2578063883efa671461022f5780638da5cb5b1461025857806390e74bab146102835761011f565b8063309aa6f714610124578063476343ee146101615780635c991277146101785780636bfb0d0114610194578063715018a6146101bf575b600080fd5b34801561013057600080fd5b5061014b600480360381019061014691906120c3565b6104a5565b6040516101589190612144565b60405180910390f35b34801561016d57600080fd5b506101766104e7565b005b610192600480360381019061018d919061215f565b610624565b005b3480156101a057600080fd5b506101a961099c565b6040516101b6919061219b565b60405180910390f35b3480156101cb57600080fd5b506101d46109a2565b005b6101f060048036038101906101eb91906120c3565b610a2a565b005b3480156101fe57600080fd5b506102196004803603810190610214919061215f565b610ee2565b604051610226919061219b565b60405180910390f35b34801561023b57600080fd5b50610256600480360381019061025191906120c3565b610efa565b005b34801561026457600080fd5b5061026d6111b8565b60405161027a9190612144565b60405180910390f35b34801561028f57600080fd5b506102aa60048036038101906102a591906121e2565b6111e1565b005b3480156102b857600080fd5b506102d360048036038101906102ce91906121e2565b6115eb565b6040516102e0919061223d565b60405180910390f35b3480156102f557600080fd5b50610310600480360381019061030b9190612258565b61161a565b60405161031d919061219b565b60405180910390f35b34801561033257600080fd5b5061033b61163f565b604051610348919061219b565b60405180910390f35b34801561035d57600080fd5b5061037860048036038101906103739190612298565b611644565b005b34801561038657600080fd5b506103a1600480360381019061039c919061215f565b6117cf565b6040516103b29594939291906122c5565b60405180910390f35b3480156103c757600080fd5b506103e260048036038101906103dd9190612298565b611852565b6040516103ef919061223d565b60405180910390f35b34801561040457600080fd5b5061040d611872565b60405161041a919061219b565b60405180910390f35b61043d6004803603810190610438919061215f565b611878565b005b34801561044b57600080fd5b506104666004803603810190610461919061215f565b611c78565b6040516104739190612144565b60405180910390f35b34801561048857600080fd5b506104a3600480360381019061049e9190612298565b611cab565b005b600a6020528160005260406000206020528060005260406000206000915091509054906101000a900473ffffffffffffffffffffffffffffffffffffffff1681565b6104ef611da3565b73ffffffffffffffffffffffffffffffffffffffff1661050d6111b8565b73ffffffffffffffffffffffffffffffffffffffff1614610563576040517f08c379a000000000000000000000000000000000000000000000000000000000815260040161055a90612375565b60405180910390fd5b3073ffffffffffffffffffffffffffffffffffffffff16638da5cb5b6040518163ffffffff1660e01b8152600401602060405180830381865afa1580156105ae573d6000803e3d6000fd5b505050506040513d601f19601f820116820180604052508101906105d291906123aa565b73ffffffffffffffffffffffffffffffffffffffff166108fc6002549081150290604051600060405180830381858888f19350505050158015610619573d6000803e3d6000fd5b506000600281905550565b8060035481111561066a576040517f08c379a000000000000000000000000000000000000000000000000000000000815260040161066190612423565b60405180910390fd5b600034116106ad576040517f08c379a00000000000000000000000000000000000000000000000000000000081526004016106a4906124b5565b60405180910390fd5b60006005600084815260200190815260200160002060000160009054906101000a900473ffffffffffffffffffffffffffffffffffffffff1673ffffffffffffffffffffffffffffffffffffffff16636352211e60056000868152602001908152602001600020600201546040518263ffffffff1660e01b8152600401610734919061219b565b602060405180830381865afa158015610751573d6000803e3d6000fd5b505050506040513d601f19601f8201168201806040525081019061077591906123aa565b90508073ffffffffffffffffffffffffffffffffffffffff163373ffffffffffffffffffffffffffffffffffffffff1614156107e6576040517f08c379a00000000000000000000000000000000000000000000000000000000081526004016107dd90612521565b60405180910390fd5b60006009600085815260200190815260200160002060003373ffffffffffffffffffffffffffffffffffffffff1673ffffffffffffffffffffffffffffffffffffffff1681526020019081526020016000205414610879576040517f08c379a0000000000000000000000000000000000000000000000000000000008152600401610870906125b3565b60405180910390fd5b6000600b60008581526020019081526020016000206000815461089b90612602565b9190508190559050346009600086815260200190815260200160002060003373ffffffffffffffffffffffffffffffffffffffff1673ffffffffffffffffffffffffffffffffffffffff1681526020019081526020016000208190555033600a6000868152602001908152602001600020600083815260200190815260200160002060006101000a81548173ffffffffffffffffffffffffffffffffffffffff021916908373ffffffffffffffffffffffffffffffffffffffff1602179055507fbb80081a02d810138244e28a879aecf68aa10002f1bed5ef2adabe51d18d488184333460405161098e9392919061264b565b60405180910390a150505050565b60035481565b6109aa611da3565b73ffffffffffffffffffffffffffffffffffffffff166109c86111b8565b73ffffffffffffffffffffffffffffffffffffffff1614610a1e576040517f08c379a0000000000000000000000000000000000000000000000000000000008152600401610a1590612375565b60405180910390fd5b610a286000611dab565b565b60026001541415610a70576040517f08c379a0000000000000000000000000000000000000000000000000000000008152600401610a67906126ce565b60405180910390fd5b600260018190555081600354811115610abe576040517f08c379a0000000000000000000000000000000000000000000000000000000008152600401610ab590612423565b60405180910390fd5b600b600084815260200190815260200160002054821115610b14576040517f08c379a0000000000000000000000000000000000000000000000000000000008152600401610b0b9061273a565b60405180910390fd5b60006005600085815260200190815260200160002060000160009054906101000a900473ffffffffffffffffffffffffffffffffffffffff16905060008173ffffffffffffffffffffffffffffffffffffffff16636352211e60056000888152602001908152602001600020600201546040518263ffffffff1660e01b8152600401610ba0919061219b565b602060405180830381865afa158015610bbd573d6000803e3d6000fd5b505050506040513d601f19601f82011682018060405250810190610be191906123aa565b90508073ffffffffffffffffffffffffffffffffffffffff163373ffffffffffffffffffffffffffffffffffffffff1614610c51576040517f08c379a0000000000000000000000000000000000000000000000000000000008152600401610c48906127cc565b60405180910390fd5b6000600560008781526020019081526020016000206002015490506000600a6000888152602001908152602001600020600087815260200190815260200160002060009054906101000a900473ffffffffffffffffffffffffffffffffffffffff16905060006009600089815260200190815260200160002060008373ffffffffffffffffffffffffffffffffffffffff1673ffffffffffffffffffffffffffffffffffffffff16815260200190815260200160002054905060006005606483610d1b919061281b565b610d25919061284c565b90503373ffffffffffffffffffffffffffffffffffffffff166108fc8284610d4d91906128a6565b9081150290604051600060405180830381858888f19350505050158015610d78573d6000803e3d6000fd5b508060026000828254610d8b91906128da565b925050819055508573ffffffffffffffffffffffffffffffffffffffff166342842e0e3385876040518463ffffffff1660e01b8152600401610dcf93929190612930565b600060405180830381600087803b158015610de957600080fd5b505af1158015610dfd573d6000803e3d6000fd5b505050506000600560008b815260200190815260200160002060040160006101000a81548160ff02191690831515021790555082600560008b815260200190815260200160002060010160006101000a81548173ffffffffffffffffffffffffffffffffffffffff021916908373ffffffffffffffffffffffffffffffffffffffff160217905550610e8f8989611e6f565b7fb32862f3fcbd461518a1e17967bbddf5def6f2e8585ff76d19d614a6ca5a727d898786853388604051610ec896959493929190612967565b60405180910390a150505050505050600180819055505050565b600b6020528060005260406000206000915090505481565b81600354811115610f40576040517f08c379a0000000000000000000000000000000000000000000000000000000008152600401610f3790612423565b60405180910390fd5b6005600084815260200190815260200160002060040160009054906101000a900460ff1615610fa4576040517f08c379a0000000000000000000000000000000000000000000000000000000008152600401610f9b90612a14565b60405180910390fd5b60006005600085815260200190815260200160002060000160009054906101000a900473ffffffffffffffffffffffffffffffffffffffff16905060006005600086815260200190815260200160002060020154905060008273ffffffffffffffffffffffffffffffffffffffff16636352211e836040518263ffffffff1660e01b8152600401611035919061219b565b602060405180830381865afa158015611052573d6000803e3d6000fd5b505050506040513d601f19601f8201168201806040525081019061107691906123aa565b90503373ffffffffffffffffffffffffffffffffffffffff168173ffffffffffffffffffffffffffffffffffffffff16146110e6576040517f08c379a00000000000000000000000000000000000000000000000000000000081526004016110dd906127cc565b60405180910390fd5b60008511611129576040517f08c379a000000000000000000000000000000000000000000000000000000000815260040161112090612a80565b60405180910390fd5b84600560008881526020019081526020016000206003018190555060016005600088815260200190815260200160002060040160006101000a81548160ff0219169083151502179055507fb7070c3c377d2fb697e5ddc72b0283eb751116d682ff1cdb579eab77bcc4013b868484886040516111a89493929190612aa0565b60405180910390a1505050505050565b60008060009054906101000a900473ffffffffffffffffffffffffffffffffffffffff16905090565b600760008373ffffffffffffffffffffffffffffffffffffffff1673ffffffffffffffffffffffffffffffffffffffff16815260200190815260200160002060009054906101000a900460ff1661126d576040517f08c379a000000000000000000000000000000000000000000000000000000000815260040161126490612b31565b60405180910390fd5b600860008373ffffffffffffffffffffffffffffffffffffffff1673ffffffffffffffffffffffffffffffffffffffff168152602001908152602001600020600082815260200190815260200160002060009054906101000a900460ff161561130b576040517f08c379a000000000000000000000000000000000000000000000000000000000815260040161130290612b9d565b60405180910390fd5b60008273ffffffffffffffffffffffffffffffffffffffff16636352211e836040518263ffffffff1660e01b8152600401611346919061219b565b602060405180830381865afa158015611363573d6000803e3d6000fd5b505050506040513d601f19601f8201168201806040525081019061138791906123aa565b90503373ffffffffffffffffffffffffffffffffffffffff168173ffffffffffffffffffffffffffffffffffffffff16146113f7576040517f08c379a00000000000000000000000000000000000000000000000000000000081526004016113ee906127cc565b60405180910390fd5b6003600081548092919061140a90612602565b91905055506040518060a001604052808473ffffffffffffffffffffffffffffffffffffffff1681526020013373ffffffffffffffffffffffffffffffffffffffff168152602001838152602001600081526020016000151581525060056000600354815260200190815260200160002060008201518160000160006101000a81548173ffffffffffffffffffffffffffffffffffffffff021916908373ffffffffffffffffffffffffffffffffffffffff16021790555060208201518160010160006101000a81548173ffffffffffffffffffffffffffffffffffffffff021916908373ffffffffffffffffffffffffffffffffffffffff160217905550604082015181600201556060820151816003015560808201518160040160006101000a81548160ff0219169083151502179055509050506001600860008573ffffffffffffffffffffffffffffffffffffffff1673ffffffffffffffffffffffffffffffffffffffff168152602001908152602001600020600084815260200190815260200160002060006101000a81548160ff0219169083151502179055507f1e74f4405cb5c0035c4e21b0c835509157e5dc5146705c750acfccb5f0d70b8660035484846040516115de9392919061264b565b60405180910390a1505050565b60086020528160005260406000206020528060005260406000206000915091509054906101000a900460ff1681565b6009602052816000526040600020602052806000526040600020600091509150505481565b600581565b600760008273ffffffffffffffffffffffffffffffffffffffff1673ffffffffffffffffffffffffffffffffffffffff16815260200190815260200160002060009054906101000a900460ff16156116d1576040517f08c379a00000000000000000000000000000000000000000000000000000000081526004016116c890612c09565b60405180910390fd5b600460008154809291906116e490612602565b91905055508060066000600454815260200190815260200160002060006101000a81548173ffffffffffffffffffffffffffffffffffffffff021916908373ffffffffffffffffffffffffffffffffffffffff1602179055506001600760008373ffffffffffffffffffffffffffffffffffffffff1673ffffffffffffffffffffffffffffffffffffffff16815260200190815260200160002060006101000a81548160ff0219169083151502179055507f7701426aaa4c0c88a30924a7aba88dce66b18c4020b54e4e19c9e0eb0abc2992816040516117c49190612144565b60405180910390a150565b60056020528060005260406000206000915090508060000160009054906101000a900473ffffffffffffffffffffffffffffffffffffffff16908060010160009054906101000a900473ffffffffffffffffffffffffffffffffffffffff16908060020154908060030154908060040160009054906101000a900460ff16905085565b60076020528060005260406000206000915054906101000a900460ff1681565b60045481565b600260015414156118be576040517f08c379a00000000000000000000000000000000000000000000000000000000081526004016118b5906126ce565b60405180910390fd5b60026001819055508060035481111561190c576040517f08c379a000000000000000000000000000000000000000000000000000000000815260040161190390612423565b60405180910390fd5b6005600083815260200190815260200160002060040160009054906101000a900460ff1661196f576040517f08c379a000000000000000000000000000000000000000000000000000000000815260040161196690612c75565b60405180910390fd5b600060056000848152602001908152602001600020600301549050803410156119cd576040517f08c379a00000000000000000000000000000000000000000000000000000000081526004016119c490612ce1565b60405180910390fd5b60006005600085815260200190815260200160002060000160009054906101000a900473ffffffffffffffffffffffffffffffffffffffff16905060006005600086815260200190815260200160002060020154905060008273ffffffffffffffffffffffffffffffffffffffff16636352211e836040518263ffffffff1660e01b8152600401611a5e919061219b565b602060405180830381865afa158015611a7b573d6000803e3d6000fd5b505050506040513d601f19601f82011682018060405250810190611a9f91906123aa565b905060006005606486611ab2919061281b565b611abc919061284c565b90508173ffffffffffffffffffffffffffffffffffffffff166108fc8287611ae491906128a6565b9081150290604051600060405180830381858888f19350505050158015611b0f573d6000803e3d6000fd5b508060026000828254611b2291906128da565b925050819055508373ffffffffffffffffffffffffffffffffffffffff166342842e0e8333866040518463ffffffff1660e01b8152600401611b6693929190612930565b600060405180830381600087803b158015611b8057600080fd5b505af1158015611b94573d6000803e3d6000fd5b5050505060006005600089815260200190815260200160002060040160006101000a81548160ff021916908315150217905550336005600089815260200190815260200160002060010160006101000a81548173ffffffffffffffffffffffffffffffffffffffff021916908373ffffffffffffffffffffffffffffffffffffffff160217905550611c27876000611e6f565b7fb32862f3fcbd461518a1e17967bbddf5def6f2e8585ff76d19d614a6ca5a727d878585888633604051611c6096959493929190612967565b60405180910390a15050505050506001808190555050565b60066020528060005260406000206000915054906101000a900473ffffffffffffffffffffffffffffffffffffffff1681565b611cb3611da3565b73ffffffffffffffffffffffffffffffffffffffff16611cd16111b8565b73ffffffffffffffffffffffffffffffffffffffff1614611d27576040517f08c379a0000000000000000000000000000000000000000000000000000000008152600401611d1e90612375565b60405180910390fd5b600073ffffffffffffffffffffffffffffffffffffffff168173ffffffffffffffffffffffffffffffffffffffff161415611d97576040517f08c379a0000000000000000000000000000000000000000000000000000000008152600401611d8e90612d73565b60405180910390fd5b611da081611dab565b50565b600033905090565b60008060009054906101000a900473ffffffffffffffffffffffffffffffffffffffff169050816000806101000a81548173ffffffffffffffffffffffffffffffffffffffff021916908373ffffffffffffffffffffffffffffffffffffffff1602179055508173ffffffffffffffffffffffffffffffffffffffff168173ffffffffffffffffffffffffffffffffffffffff167f8be0079c531659141344cd1fd0a4f28419497f9722a3daafe3b4186f6b6457e060405160405180910390a35050565b6000600b60008481526020019081526020016000205490506000811415611e965750612084565b6000600190505b818111612068576000600a6000868152602001908152602001600020600083815260200190815260200160002060009054906101000a900473ffffffffffffffffffffffffffffffffffffffff1690506000600a6000878152602001908152602001600020600084815260200190815260200160002060006101000a81548173ffffffffffffffffffffffffffffffffffffffff021916908373ffffffffffffffffffffffffffffffffffffffff16021790555060006009600087815260200190815260200160002060008373ffffffffffffffffffffffffffffffffffffffff1673ffffffffffffffffffffffffffffffffffffffff16815260200190815260200160002054905060006009600088815260200190815260200160002060008473ffffffffffffffffffffffffffffffffffffffff1673ffffffffffffffffffffffffffffffffffffffff168152602001908152602001600020819055508483141561200b575050612055565b8173ffffffffffffffffffffffffffffffffffffffff166108fc829081150290604051600060405180830381858888f19350505050158015612051573d6000803e3d6000fd5b5050505b808061206090612602565b915050611e9d565b506000600b600085815260200190815260200160002081905550505b5050565b600080fd5b6000819050919050565b6120a08161208d565b81146120ab57600080fd5b50565b6000813590506120bd81612097565b92915050565b600080604083850312156120da576120d9612088565b5b60006120e8858286016120ae565b92505060206120f9858286016120ae565b9150509250929050565b600073ffffffffffffffffffffffffffffffffffffffff82169050919050565b600061212e82612103565b9050919050565b61213e81612123565b82525050565b60006020820190506121596000830184612135565b92915050565b60006020828403121561217557612174612088565b5b6000612183848285016120ae565b91505092915050565b6121958161208d565b82525050565b60006020820190506121b0600083018461218c565b92915050565b6121bf81612123565b81146121ca57600080fd5b50565b6000813590506121dc816121b6565b92915050565b600080604083850312156121f9576121f8612088565b5b6000612207858286016121cd565b9250506020612218858286016120ae565b9150509250929050565b60008115159050919050565b61223781612222565b82525050565b6000602082019050612252600083018461222e565b92915050565b6000806040838503121561226f5761226e612088565b5b600061227d858286016120ae565b925050602061228e858286016121cd565b9150509250929050565b6000602082840312156122ae576122ad612088565b5b60006122bc848285016121cd565b91505092915050565b600060a0820190506122da6000830188612135565b6122e76020830187612135565b6122f4604083018661218c565b612301606083018561218c565b61230e608083018461222e565b9695505050505050565b600082825260208201905092915050565b7f4f776e61626c653a2063616c6c6572206973206e6f7420746865206f776e6572600082015250565b600061235f602083612318565b915061236a82612329565b602082019050919050565b6000602082019050818103600083015261238e81612352565b9050919050565b6000815190506123a4816121b6565b92915050565b6000602082840312156123c0576123bf612088565b5b60006123ce84828501612395565b91505092915050565b7f4974656d20646f65736e27742065786973742e00000000000000000000000000600082015250565b600061240d601383612318565b9150612418826123d7565b602082019050919050565b6000602082019050818103600083015261243c81612400565b9050919050565b7f5468652076616c7565206d7573742062652067726561746572207468616e203060008201527f2e00000000000000000000000000000000000000000000000000000000000000602082015250565b600061249f602183612318565b91506124aa82612443565b604082019050919050565b600060208201905081810360008301526124ce81612492565b9050919050565b7f596f752061726520746865206f776e6572206f662074686174206974656d2e00600082015250565b600061250b601f83612318565b9150612516826124d5565b602082019050919050565b6000602082019050818103600083015261253a816124fe565b9050919050565b7f596f7520617265206e6f7420616c6c6f77656420746f2073656e64206d6f726560008201527f207468616e206f6e65206f6666657220666f7220616e206974656d2e00000000602082015250565b600061259d603c83612318565b91506125a882612541565b604082019050919050565b600060208201905081810360008301526125cc81612590565b9050919050565b7f4e487b7100000000000000000000000000000000000000000000000000000000600052601160045260246000fd5b600061260d8261208d565b91507fffffffffffffffffffffffffffffffffffffffffffffffffffffffffffffffff8214156126405761263f6125d3565b5b600182019050919050565b6000606082019050612660600083018661218c565b61266d6020830185612135565b61267a604083018461218c565b949350505050565b7f5265656e7472616e637947756172643a207265656e7472616e742063616c6c00600082015250565b60006126b8601f83612318565b91506126c382612682565b602082019050919050565b600060208201905081810360008301526126e7816126ab565b9050919050565b7f4f6666657220646f65736e27742065786973742e000000000000000000000000600082015250565b6000612724601483612318565b915061272f826126ee565b602082019050919050565b6000602082019050818103600083015261275381612717565b9050919050565b7f596f7520617265206e6f7420746865206f776e6572206f66207468617420746f60008201527f6b656e2e00000000000000000000000000000000000000000000000000000000602082015250565b60006127b6602483612318565b91506127c18261275a565b604082019050919050565b600060208201905081810360008301526127e5816127a9565b9050919050565b7f4e487b7100000000000000000000000000000000000000000000000000000000600052601260045260246000fd5b60006128268261208d565b91506128318361208d565b925082612841576128406127ec565b5b828204905092915050565b60006128578261208d565b91506128628361208d565b9250817fffffffffffffffffffffffffffffffffffffffffffffffffffffffffffffffff048311821515161561289b5761289a6125d3565b5b828202905092915050565b60006128b18261208d565b91506128bc8361208d565b9250828210156128cf576128ce6125d3565b5b828203905092915050565b60006128e58261208d565b91506128f08361208d565b9250827fffffffffffffffffffffffffffffffffffffffffffffffffffffffffffffffff03821115612925576129246125d3565b5b828201905092915050565b60006060820190506129456000830186612135565b6129526020830185612135565b61295f604083018461218c565b949350505050565b600060c08201905061297c600083018961218c565b6129896020830188612135565b612996604083018761218c565b6129a3606083018661218c565b6129b06080830185612135565b6129bd60a0830184612135565b979650505050505050565b7f4974656d20697320616c7265616479206c69737465642e000000000000000000600082015250565b60006129fe601783612318565b9150612a09826129c8565b602082019050919050565b60006020820190508181036000830152612a2d816129f1565b9050919050565b7f5072696365206d7573742062652067726561746572207468616e207a65726f2e600082015250565b6000612a6a602083612318565b9150612a7582612a34565b602082019050919050565b60006020820190508181036000830152612a9981612a5d565b9050919050565b6000608082019050612ab5600083018761218c565b612ac26020830186612135565b612acf604083018561218c565b612adc606083018461218c565b95945050505050565b7f436f6c6c656374696f6e20646f65736e27742065786973742e00000000000000600082015250565b6000612b1b601983612318565b9150612b2682612ae5565b602082019050919050565b60006020820190508181036000830152612b4a81612b0e565b9050919050565b7f546f6b656e277320616c7265616479206265656e2061646465642e0000000000600082015250565b6000612b87601b83612318565b9150612b9282612b51565b602082019050919050565b60006020820190508181036000830152612bb681612b7a565b9050919050565b7f436f6c6c656374696f6e20616c7265616479206578697374732e000000000000600082015250565b6000612bf3601a83612318565b9150612bfe82612bbd565b602082019050919050565b60006020820190508181036000830152612c2281612be6565b9050919050565b7f4974656d206973206e6f7420666f722073616c652e0000000000000000000000600082015250565b6000612c5f601583612318565b9150612c6a82612c29565b602082019050919050565b60006020820190508181036000830152612c8e81612c52565b9050919050565b7f496e73756666696369656e742066756e64732e00000000000000000000000000600082015250565b6000612ccb601383612318565b9150612cd682612c95565b602082019050919050565b60006020820190508181036000830152612cfa81612cbe565b9050919050565b7f4f776e61626c653a206e6577206f776e657220697320746865207a65726f206160008201527f6464726573730000000000000000000000000000000000000000000000000000602082015250565b6000612d5d602683612318565b9150612d6882612d01565b604082019050919050565b60006020820190508181036000830152612d8c81612d50565b905091905056fea2646970667358221220a2b87af6445377095c95f245e01710679cc538c0c0ded57307c2d09a55ffc97664736f6c634300080c0033",
  "linkReferences": {},
  "deployedLinkReferences": {}
}