{
  "_format": "hh-sol-artifact-1",
  "contractName": "Marketplace",
  "sourceName": "contracts/Marketplace.sol",
  "abi": [
    {
      "anonymous": false,
      "inputs": [
        {
          "indexed": false,
          "internalType": "address",
          "name": "contractAddress",
          "type": "address"
        }
      ],
      "name": "CollectionAdded",
      "type": "event"
    },
    {
      "anonymous": false,
      "inputs": [
        {
          "indexed": false,
          "internalType": "uint256",
          "name": "itemId",
          "type": "uint256"
        },
        {
          "indexed": false,
          "internalType": "address",
          "name": "contractAddress",
          "type": "address"
        },
        {
          "indexed": false,
          "internalType": "uint256",
          "name": "tokenId",
          "type": "uint256"
        }
      ],
      "name": "ItemAdded",
      "type": "event"
    },
    {
      "anonymous": false,
      "inputs": [
        {
          "indexed": false,
          "internalType": "uint256",
          "name": "itemId",
          "type": "uint256"
        },
        {
          "indexed": false,
          "internalType": "address",
          "name": "contractAddress",
          "type": "address"
        },
        {
          "indexed": false,
          "internalType": "uint256",
          "name": "tokenId",
          "type": "uint256"
        },
        {
          "indexed": false,
          "internalType": "uint256",
          "name": "price",
          "type": "uint256"
        }
      ],
      "name": "ItemListed",
      "type": "event"
    },
    {
      "anonymous": false,
      "inputs": [
        {
          "indexed": false,
          "internalType": "uint256",
          "name": "itemId",
          "type": "uint256"
        },
        {
          "indexed": false,
          "internalType": "address",
          "name": "contractAddress",
          "type": "address"
        },
        {
          "indexed": false,
          "internalType": "uint256",
          "name": "tokenId",
          "type": "uint256"
        },
        {
          "indexed": false,
          "internalType": "uint256",
          "name": "price",
          "type": "uint256"
        },
        {
          "indexed": false,
          "internalType": "address",
          "name": "seller",
          "type": "address"
        },
        {
          "indexed": false,
          "internalType": "address",
          "name": "buyer",
          "type": "address"
        }
      ],
      "name": "ItemSold",
      "type": "event"
    },
    {
      "anonymous": false,
      "inputs": [
        {
          "indexed": false,
          "internalType": "uint256",
          "name": "itemId",
          "type": "uint256"
        },
        {
          "indexed": false,
          "internalType": "address",
          "name": "buyer",
          "type": "address"
        },
        {
          "indexed": false,
          "internalType": "uint256",
          "name": "price",
          "type": "uint256"
        }
      ],
      "name": "OfferSent",
      "type": "event"
    },
    {
      "anonymous": false,
      "inputs": [
        {
          "indexed": true,
          "internalType": "address",
          "name": "previousOwner",
          "type": "address"
        },
        {
          "indexed": true,
          "internalType": "address",
          "name": "newOwner",
          "type": "address"
        }
      ],
      "name": "OwnershipTransferred",
      "type": "event"
    },
    {
      "inputs": [
        {
          "internalType": "uint256",
          "name": "_itemId",
          "type": "uint256"
        },
        {
          "internalType": "uint256",
          "name": "_offerId",
          "type": "uint256"
        }
      ],
      "name": "acceptOffer",
      "outputs": [],
      "stateMutability": "payable",
      "type": "function"
    },
    {
      "inputs": [
        {
          "internalType": "address",
          "name": "_contractAddress",
          "type": "address"
        }
      ],
      "name": "addCollection",
      "outputs": [],
      "stateMutability": "nonpayable",
      "type": "function"
    },
    {
      "inputs": [
        {
          "internalType": "address",
          "name": "_contractAddress",
          "type": "address"
        },
        {
          "internalType": "uint256",
          "name": "_tokenId",
          "type": "uint256"
        }
      ],
      "name": "addItem",
      "outputs": [],
      "stateMutability": "nonpayable",
      "type": "function"
    },
    {
      "inputs": [
        {
          "internalType": "uint256",
          "name": "_itemId",
          "type": "uint256"
        }
      ],
      "name": "buyItem",
      "outputs": [],
      "stateMutability": "payable",
      "type": "function"
    },
    {
      "inputs": [],
      "name": "collectionCount",
      "outputs": [
        {
          "internalType": "uint256",
          "name": "",
          "type": "uint256"
        }
      ],
      "stateMutability": "view",
      "type": "function"
    },
    {
      "inputs": [
        {
          "internalType": "address",
          "name": "",
          "type": "address"
        }
      ],
      "name": "collectionExists",
      "outputs": [
        {
          "internalType": "bool",
          "name": "",
          "type": "bool"
        }
      ],
      "stateMutability": "view",
      "type": "function"
    },
    {
      "inputs": [],
      "name": "feePercentage",
      "outputs": [
        {
          "internalType": "uint256",
          "name": "",
          "type": "uint256"
        }
      ],
      "stateMutability": "view",
      "type": "function"
    },
    {
      "inputs": [
        {
          "internalType": "uint256",
          "name": "",
          "type": "uint256"
        }
      ],
      "name": "idToCollection",
      "outputs": [
        {
          "internalType": "address",
          "name": "",
          "type": "address"
        }
      ],
      "stateMutability": "view",
      "type": "function"
    },
    {
      "inputs": [
        {
          "internalType": "uint256",
          "name": "",
          "type": "uint256"
        }
      ],
      "name": "idToItem",
      "outputs": [
        {
          "internalType": "address",
          "name": "contractAddress",
          "type": "address"
        },
        {
          "internalType": "address",
          "name": "owner",
          "type": "address"
        },
        {
          "internalType": "uint256",
          "name": "tokenId",
          "type": "uint256"
        },
        {
          "internalType": "uint256",
          "name": "price",
          "type": "uint256"
        },
        {
          "internalType": "bool",
          "name": "forSale",
          "type": "bool"
        }
      ],
      "stateMutability": "view",
      "type": "function"
    },
    {
      "inputs": [],
      "name": "itemCount",
      "outputs": [
        {
          "internalType": "uint256",
          "name": "",
          "type": "uint256"
        }
      ],
      "stateMutability": "view",
      "type": "function"
    },
    {
      "inputs": [
        {
          "internalType": "uint256",
          "name": "",
          "type": "uint256"
        },
        {
          "internalType": "address",
          "name": "",
          "type": "address"
        }
      ],
      "name": "itemIdToBuyerToPrice",
      "outputs": [
        {
          "internalType": "uint256",
          "name": "",
          "type": "uint256"
        }
      ],
      "stateMutability": "view",
      "type": "function"
    },
    {
      "inputs": [
        {
          "internalType": "uint256",
          "name": "",
          "type": "uint256"
        }
      ],
      "name": "itemIdToOfferCount",
      "outputs": [
        {
          "internalType": "uint256",
          "name": "",
          "type": "uint256"
        }
      ],
      "stateMutability": "view",
      "type": "function"
    },
    {
      "inputs": [
        {
          "internalType": "uint256",
          "name": "",
          "type": "uint256"
        },
        {
          "internalType": "uint256",
          "name": "",
          "type": "uint256"
        }
      ],
      "name": "itemIdToOfferIdToBuyer",
      "outputs": [
        {
          "internalType": "address",
          "name": "",
          "type": "address"
        }
      ],
      "stateMutability": "view",
      "type": "function"
    },
    {
      "inputs": [
        {
          "internalType": "uint256",
          "name": "_itemId",
          "type": "uint256"
        },
        {
          "internalType": "uint256",
          "name": "_price",
          "type": "uint256"
        }
      ],
      "name": "listItem",
      "outputs": [],
      "stateMutability": "nonpayable",
      "type": "function"
    },
    {
      "inputs": [],
      "name": "owner",
      "outputs": [
        {
          "internalType": "address",
          "name": "",
          "type": "address"
        }
      ],
      "stateMutability": "view",
      "type": "function"
    },
    {
      "inputs": [],
      "name": "renounceOwnership",
      "outputs": [],
      "stateMutability": "nonpayable",
      "type": "function"
    },
    {
      "inputs": [
        {
          "internalType": "uint256",
          "name": "_itemId",
          "type": "uint256"
        }
      ],
      "name": "sendOffer",
      "outputs": [],
      "stateMutability": "payable",
      "type": "function"
    },
    {
      "inputs": [
        {
          "internalType": "address",
          "name": "",
          "type": "address"
        },
        {
          "internalType": "uint256",
          "name": "",
          "type": "uint256"
        }
      ],
      "name": "tokenExists",
      "outputs": [
        {
          "internalType": "bool",
          "name": "",
          "type": "bool"
        }
      ],
      "stateMutability": "view",
      "type": "function"
    },
    {
      "inputs": [
        {
          "internalType": "address",
          "name": "newOwner",
          "type": "address"
        }
      ],
      "name": "transferOwnership",
      "outputs": [],
      "stateMutability": "nonpayable",
      "type": "function"
    },
    {
      "inputs": [],
      "name": "withdrawFees",
      "outputs": [],
      "stateMutability": "nonpayable",
      "type": "function"
    }
  ],
  "bytecode": "0x60806040523480156200001157600080fd5b5062000032620000266200003f60201b60201c565b6200004760201b60201c565b600180819055506200010b565b600033905090565b60008060009054906101000a900473ffffffffffffffffffffffffffffffffffffffff169050816000806101000a81548173ffffffffffffffffffffffffffffffffffffffff021916908373ffffffffffffffffffffffffffffffffffffffff1602179055508173ffffffffffffffffffffffffffffffffffffffff168173ffffffffffffffffffffffffffffffffffffffff167f8be0079c531659141344cd1fd0a4f28419497f9722a3daafe3b4186f6b6457e060405160405180910390a35050565b612eda806200011b6000396000f3fe60806040526004361061011f5760003560e01c80639af03d0f116100a0578063accd006011610064578063accd0060146103bb578063d57f966b146103f8578063e7fb74c714610423578063e93b7b7d1461043f578063f2fde38b1461047c5761011f565b80639af03d0f146102ac5780639e3d83a2146102e9578063a001ecdd14610326578063a174e77a14610351578063a36701a91461037a5761011f565b806381257bd5116100e757806381257bd5146101d657806386ff72ca146101f2578063883efa671461022f5780638da5cb5b1461025857806390e74bab146102835761011f565b8063309aa6f714610124578063476343ee146101615780635c991277146101785780636bfb0d0114610194578063715018a6146101bf575b600080fd5b34801561013057600080fd5b5061014b60048036038101906101469190612168565b6104a5565b60405161015891906121e9565b60405180910390f35b34801561016d57600080fd5b506101766104e7565b005b610192600480360381019061018d9190612204565b610624565b005b3480156101a057600080fd5b506101a961099c565b6040516101b69190612240565b60405180910390f35b3480156101cb57600080fd5b506101d46109a2565b005b6101f060048036038101906101eb9190612168565b610a2a565b005b3480156101fe57600080fd5b5061021960048036038101906102149190612204565b610ee2565b6040516102269190612240565b60405180910390f35b34801561023b57600080fd5b5061025660048036038101906102519190612168565b610efa565b005b34801561026457600080fd5b5061026d6111b8565b60405161027a91906121e9565b60405180910390f35b34801561028f57600080fd5b506102aa60048036038101906102a59190612287565b6111e1565b005b3480156102b857600080fd5b506102d360048036038101906102ce9190612287565b6115eb565b6040516102e091906122e2565b60405180910390f35b3480156102f557600080fd5b50610310600480360381019061030b91906122fd565b61161a565b60405161031d9190612240565b60405180910390f35b34801561033257600080fd5b5061033b61163f565b6040516103489190612240565b60405180910390f35b34801561035d57600080fd5b506103786004803603810190610373919061233d565b611644565b005b34801561038657600080fd5b506103a1600480360381019061039c9190612204565b6117cf565b6040516103b295949392919061236a565b60405180910390f35b3480156103c757600080fd5b506103e260048036038101906103dd919061233d565b611852565b6040516103ef91906122e2565b60405180910390f35b34801561040457600080fd5b5061040d611872565b60405161041a9190612240565b60405180910390f35b61043d60048036038101906104389190612204565b611878565b005b34801561044b57600080fd5b5061046660048036038101906104619190612204565b611d1d565b60405161047391906121e9565b60405180910390f35b34801561048857600080fd5b506104a3600480360381019061049e919061233d565b611d50565b005b600a6020528160005260406000206020528060005260406000206000915091509054906101000a900473ffffffffffffffffffffffffffffffffffffffff1681565b6104ef611e48565b73ffffffffffffffffffffffffffffffffffffffff1661050d6111b8565b73ffffffffffffffffffffffffffffffffffffffff1614610563576040517f08c379a000000000000000000000000000000000000000000000000000000000815260040161055a9061241a565b60405180910390fd5b3073ffffffffffffffffffffffffffffffffffffffff16638da5cb5b6040518163ffffffff1660e01b8152600401602060405180830381865afa1580156105ae573d6000803e3d6000fd5b505050506040513d601f19601f820116820180604052508101906105d2919061244f565b73ffffffffffffffffffffffffffffffffffffffff166108fc6002549081150290604051600060405180830381858888f19350505050158015610619573d6000803e3d6000fd5b506000600281905550565b8060035481111561066a576040517f08c379a0000000000000000000000000000000000000000000000000000000008152600401610661906124c8565b60405180910390fd5b600034116106ad576040517f08c379a00000000000000000000000000000000000000000000000000000000081526004016106a49061255a565b60405180910390fd5b60006005600084815260200190815260200160002060000160009054906101000a900473ffffffffffffffffffffffffffffffffffffffff1673ffffffffffffffffffffffffffffffffffffffff16636352211e60056000868152602001908152602001600020600201546040518263ffffffff1660e01b81526004016107349190612240565b602060405180830381865afa158015610751573d6000803e3d6000fd5b505050506040513d601f19601f82011682018060405250810190610775919061244f565b90508073ffffffffffffffffffffffffffffffffffffffff163373ffffffffffffffffffffffffffffffffffffffff1614156107e6576040517f08c379a00000000000000000000000000000000000000000000000000000000081526004016107dd906125c6565b60405180910390fd5b60006009600085815260200190815260200160002060003373ffffffffffffffffffffffffffffffffffffffff1673ffffffffffffffffffffffffffffffffffffffff1681526020019081526020016000205414610879576040517f08c379a000000000000000000000000000000000000000000000000000000000815260040161087090612658565b60405180910390fd5b6000600b60008581526020019081526020016000206000815461089b906126a7565b9190508190559050346009600086815260200190815260200160002060003373ffffffffffffffffffffffffffffffffffffffff1673ffffffffffffffffffffffffffffffffffffffff1681526020019081526020016000208190555033600a6000868152602001908152602001600020600083815260200190815260200160002060006101000a81548173ffffffffffffffffffffffffffffffffffffffff021916908373ffffffffffffffffffffffffffffffffffffffff1602179055507fbb80081a02d810138244e28a879aecf68aa10002f1bed5ef2adabe51d18d488184333460405161098e939291906126f0565b60405180910390a150505050565b60035481565b6109aa611e48565b73ffffffffffffffffffffffffffffffffffffffff166109c86111b8565b73ffffffffffffffffffffffffffffffffffffffff1614610a1e576040517f08c379a0000000000000000000000000000000000000000000000000000000008152600401610a159061241a565b60405180910390fd5b610a286000611e50565b565b60026001541415610a70576040517f08c379a0000000000000000000000000000000000000000000000000000000008152600401610a6790612773565b60405180910390fd5b600260018190555081600354811115610abe576040517f08c379a0000000000000000000000000000000000000000000000000000000008152600401610ab5906124c8565b60405180910390fd5b600b600084815260200190815260200160002054821115610b14576040517f08c379a0000000000000000000000000000000000000000000000000000000008152600401610b0b906127df565b60405180910390fd5b60006005600085815260200190815260200160002060000160009054906101000a900473ffffffffffffffffffffffffffffffffffffffff16905060008173ffffffffffffffffffffffffffffffffffffffff16636352211e60056000888152602001908152602001600020600201546040518263ffffffff1660e01b8152600401610ba09190612240565b602060405180830381865afa158015610bbd573d6000803e3d6000fd5b505050506040513d601f19601f82011682018060405250810190610be1919061244f565b90508073ffffffffffffffffffffffffffffffffffffffff163373ffffffffffffffffffffffffffffffffffffffff1614610c51576040517f08c379a0000000000000000000000000000000000000000000000000000000008152600401610c4890612871565b60405180910390fd5b6000600560008781526020019081526020016000206002015490506000600a6000888152602001908152602001600020600087815260200190815260200160002060009054906101000a900473ffffffffffffffffffffffffffffffffffffffff16905060006009600089815260200190815260200160002060008373ffffffffffffffffffffffffffffffffffffffff1673ffffffffffffffffffffffffffffffffffffffff16815260200190815260200160002054905060006005606483610d1b91906128c0565b610d2591906128f1565b90503373ffffffffffffffffffffffffffffffffffffffff166108fc8284610d4d919061294b565b9081150290604051600060405180830381858888f19350505050158015610d78573d6000803e3d6000fd5b508060026000828254610d8b919061297f565b925050819055508573ffffffffffffffffffffffffffffffffffffffff166342842e0e3385876040518463ffffffff1660e01b8152600401610dcf939291906129d5565b600060405180830381600087803b158015610de957600080fd5b505af1158015610dfd573d6000803e3d6000fd5b505050506000600560008b815260200190815260200160002060040160006101000a81548160ff02191690831515021790555082600560008b815260200190815260200160002060010160006101000a81548173ffffffffffffffffffffffffffffffffffffffff021916908373ffffffffffffffffffffffffffffffffffffffff160217905550610e8f8989611f14565b7fb32862f3fcbd461518a1e17967bbddf5def6f2e8585ff76d19d614a6ca5a727d898786853388604051610ec896959493929190612a0c565b60405180910390a150505050505050600180819055505050565b600b6020528060005260406000206000915090505481565b81600354811115610f40576040517f08c379a0000000000000000000000000000000000000000000000000000000008152600401610f37906124c8565b60405180910390fd5b6005600084815260200190815260200160002060040160009054906101000a900460ff1615610fa4576040517f08c379a0000000000000000000000000000000000000000000000000000000008152600401610f9b90612ab9565b60405180910390fd5b60006005600085815260200190815260200160002060000160009054906101000a900473ffffffffffffffffffffffffffffffffffffffff16905060006005600086815260200190815260200160002060020154905060008273ffffffffffffffffffffffffffffffffffffffff16636352211e836040518263ffffffff1660e01b81526004016110359190612240565b602060405180830381865afa158015611052573d6000803e3d6000fd5b505050506040513d601f19601f82011682018060405250810190611076919061244f565b90503373ffffffffffffffffffffffffffffffffffffffff168173ffffffffffffffffffffffffffffffffffffffff16146110e6576040517f08c379a00000000000000000000000000000000000000000000000000000000081526004016110dd90612871565b60405180910390fd5b60008511611129576040517f08c379a000000000000000000000000000000000000000000000000000000000815260040161112090612b25565b60405180910390fd5b84600560008881526020019081526020016000206003018190555060016005600088815260200190815260200160002060040160006101000a81548160ff0219169083151502179055507fb7070c3c377d2fb697e5ddc72b0283eb751116d682ff1cdb579eab77bcc4013b868484886040516111a89493929190612b45565b60405180910390a1505050505050565b60008060009054906101000a900473ffffffffffffffffffffffffffffffffffffffff16905090565b600760008373ffffffffffffffffffffffffffffffffffffffff1673ffffffffffffffffffffffffffffffffffffffff16815260200190815260200160002060009054906101000a900460ff1661126d576040517f08c379a000000000000000000000000000000000000000000000000000000000815260040161126490612bd6565b60405180910390fd5b600860008373ffffffffffffffffffffffffffffffffffffffff1673ffffffffffffffffffffffffffffffffffffffff168152602001908152602001600020600082815260200190815260200160002060009054906101000a900460ff161561130b576040517f08c379a000000000000000000000000000000000000000000000000000000000815260040161130290612c42565b60405180910390fd5b60008273ffffffffffffffffffffffffffffffffffffffff16636352211e836040518263ffffffff1660e01b81526004016113469190612240565b602060405180830381865afa158015611363573d6000803e3d6000fd5b505050506040513d601f19601f82011682018060405250810190611387919061244f565b90503373ffffffffffffffffffffffffffffffffffffffff168173ffffffffffffffffffffffffffffffffffffffff16146113f7576040517f08c379a00000000000000000000000000000000000000000000000000000000081526004016113ee90612871565b60405180910390fd5b6003600081548092919061140a906126a7565b91905055506040518060a001604052808473ffffffffffffffffffffffffffffffffffffffff1681526020013373ffffffffffffffffffffffffffffffffffffffff168152602001838152602001600081526020016000151581525060056000600354815260200190815260200160002060008201518160000160006101000a81548173ffffffffffffffffffffffffffffffffffffffff021916908373ffffffffffffffffffffffffffffffffffffffff16021790555060208201518160010160006101000a81548173ffffffffffffffffffffffffffffffffffffffff021916908373ffffffffffffffffffffffffffffffffffffffff160217905550604082015181600201556060820151816003015560808201518160040160006101000a81548160ff0219169083151502179055509050506001600860008573ffffffffffffffffffffffffffffffffffffffff1673ffffffffffffffffffffffffffffffffffffffff168152602001908152602001600020600084815260200190815260200160002060006101000a81548160ff0219169083151502179055507f1e74f4405cb5c0035c4e21b0c835509157e5dc5146705c750acfccb5f0d70b8660035484846040516115de939291906126f0565b60405180910390a1505050565b60086020528160005260406000206020528060005260406000206000915091509054906101000a900460ff1681565b6009602052816000526040600020602052806000526040600020600091509150505481565b600581565b600760008273ffffffffffffffffffffffffffffffffffffffff1673ffffffffffffffffffffffffffffffffffffffff16815260200190815260200160002060009054906101000a900460ff16156116d1576040517f08c379a00000000000000000000000000000000000000000000000000000000081526004016116c890612cae565b60405180910390fd5b600460008154809291906116e4906126a7565b91905055508060066000600454815260200190815260200160002060006101000a81548173ffffffffffffffffffffffffffffffffffffffff021916908373ffffffffffffffffffffffffffffffffffffffff1602179055506001600760008373ffffffffffffffffffffffffffffffffffffffff1673ffffffffffffffffffffffffffffffffffffffff16815260200190815260200160002060006101000a81548160ff0219169083151502179055507f7701426aaa4c0c88a30924a7aba88dce66b18c4020b54e4e19c9e0eb0abc2992816040516117c491906121e9565b60405180910390a150565b60056020528060005260406000206000915090508060000160009054906101000a900473ffffffffffffffffffffffffffffffffffffffff16908060010160009054906101000a900473ffffffffffffffffffffffffffffffffffffffff16908060020154908060030154908060040160009054906101000a900460ff16905085565b60076020528060005260406000206000915054906101000a900460ff1681565b60045481565b600260015414156118be576040517f08c379a00000000000000000000000000000000000000000000000000000000081526004016118b590612773565b60405180910390fd5b60026001819055508060035481111561190c576040517f08c379a0000000000000000000000000000000000000000000000000000000008152600401611903906124c8565b60405180910390fd5b6005600083815260200190815260200160002060040160009054906101000a900460ff1661196f576040517f08c379a000000000000000000000000000000000000000000000000000000000815260040161196690612d1a565b60405180910390fd5b600060056000848152602001908152602001600020600301549050803410156119cd576040517f08c379a00000000000000000000000000000000000000000000000000000000081526004016119c490612d86565b60405180910390fd5b3373ffffffffffffffffffffffffffffffffffffffff166005600085815260200190815260200160002060010160009054906101000a900473ffffffffffffffffffffffffffffffffffffffff1673ffffffffffffffffffffffffffffffffffffffff161415611a72576040517f08c379a0000000000000000000000000000000000000000000000000000000008152600401611a6990612df2565b60405180910390fd5b60006005600085815260200190815260200160002060000160009054906101000a900473ffffffffffffffffffffffffffffffffffffffff16905060006005600086815260200190815260200160002060020154905060008273ffffffffffffffffffffffffffffffffffffffff16636352211e836040518263ffffffff1660e01b8152600401611b039190612240565b602060405180830381865afa158015611b20573d6000803e3d6000fd5b505050506040513d601f19601f82011682018060405250810190611b44919061244f565b905060006005606486611b5791906128c0565b611b6191906128f1565b90508173ffffffffffffffffffffffffffffffffffffffff166108fc8287611b89919061294b565b9081150290604051600060405180830381858888f19350505050158015611bb4573d6000803e3d6000fd5b508060026000828254611bc7919061297f565b925050819055508373ffffffffffffffffffffffffffffffffffffffff166342842e0e8333866040518463ffffffff1660e01b8152600401611c0b939291906129d5565b600060405180830381600087803b158015611c2557600080fd5b505af1158015611c39573d6000803e3d6000fd5b5050505060006005600089815260200190815260200160002060040160006101000a81548160ff021916908315150217905550336005600089815260200190815260200160002060010160006101000a81548173ffffffffffffffffffffffffffffffffffffffff021916908373ffffffffffffffffffffffffffffffffffffffff160217905550611ccc876000611f14565b7fb32862f3fcbd461518a1e17967bbddf5def6f2e8585ff76d19d614a6ca5a727d878585888633604051611d0596959493929190612a0c565b60405180910390a15050505050506001808190555050565b60066020528060005260406000206000915054906101000a900473ffffffffffffffffffffffffffffffffffffffff1681565b611d58611e48565b73ffffffffffffffffffffffffffffffffffffffff16611d766111b8565b73ffffffffffffffffffffffffffffffffffffffff1614611dcc576040517f08c379a0000000000000000000000000000000000000000000000000000000008152600401611dc39061241a565b60405180910390fd5b600073ffffffffffffffffffffffffffffffffffffffff168173ffffffffffffffffffffffffffffffffffffffff161415611e3c576040517f08c379a0000000000000000000000000000000000000000000000000000000008152600401611e3390612e84565b60405180910390fd5b611e4581611e50565b50565b600033905090565b60008060009054906101000a900473ffffffffffffffffffffffffffffffffffffffff169050816000806101000a81548173ffffffffffffffffffffffffffffffffffffffff021916908373ffffffffffffffffffffffffffffffffffffffff1602179055508173ffffffffffffffffffffffffffffffffffffffff168173ffffffffffffffffffffffffffffffffffffffff167f8be0079c531659141344cd1fd0a4f28419497f9722a3daafe3b4186f6b6457e060405160405180910390a35050565b6000600b60008481526020019081526020016000205490506000811415611f3b5750612129565b6000600190505b81811161210d576000600a6000868152602001908152602001600020600083815260200190815260200160002060009054906101000a900473ffffffffffffffffffffffffffffffffffffffff1690506000600a6000878152602001908152602001600020600084815260200190815260200160002060006101000a81548173ffffffffffffffffffffffffffffffffffffffff021916908373ffffffffffffffffffffffffffffffffffffffff16021790555060006009600087815260200190815260200160002060008373ffffffffffffffffffffffffffffffffffffffff1673ffffffffffffffffffffffffffffffffffffffff16815260200190815260200160002054905060006009600088815260200190815260200160002060008473ffffffffffffffffffffffffffffffffffffffff1673ffffffffffffffffffffffffffffffffffffffff16815260200190815260200160002081905550848314156120b05750506120fa565b8173ffffffffffffffffffffffffffffffffffffffff166108fc829081150290604051600060405180830381858888f193505050501580156120f6573d6000803e3d6000fd5b5050505b8080612105906126a7565b915050611f42565b506000600b600085815260200190815260200160002081905550505b5050565b600080fd5b6000819050919050565b61214581612132565b811461215057600080fd5b50565b6000813590506121628161213c565b92915050565b6000806040838503121561217f5761217e61212d565b5b600061218d85828601612153565b925050602061219e85828601612153565b9150509250929050565b600073ffffffffffffffffffffffffffffffffffffffff82169050919050565b60006121d3826121a8565b9050919050565b6121e3816121c8565b82525050565b60006020820190506121fe60008301846121da565b92915050565b60006020828403121561221a5761221961212d565b5b600061222884828501612153565b91505092915050565b61223a81612132565b82525050565b60006020820190506122556000830184612231565b92915050565b612264816121c8565b811461226f57600080fd5b50565b6000813590506122818161225b565b92915050565b6000806040838503121561229e5761229d61212d565b5b60006122ac85828601612272565b92505060206122bd85828601612153565b9150509250929050565b60008115159050919050565b6122dc816122c7565b82525050565b60006020820190506122f760008301846122d3565b92915050565b600080604083850312156123145761231361212d565b5b600061232285828601612153565b925050602061233385828601612272565b9150509250929050565b6000602082840312156123535761235261212d565b5b600061236184828501612272565b91505092915050565b600060a08201905061237f60008301886121da565b61238c60208301876121da565b6123996040830186612231565b6123a66060830185612231565b6123b360808301846122d3565b9695505050505050565b600082825260208201905092915050565b7f4f776e61626c653a2063616c6c6572206973206e6f7420746865206f776e6572600082015250565b60006124046020836123bd565b915061240f826123ce565b602082019050919050565b60006020820190508181036000830152612433816123f7565b9050919050565b6000815190506124498161225b565b92915050565b6000602082840312156124655761246461212d565b5b60006124738482850161243a565b91505092915050565b7f4974656d20646f65736e27742065786973742e00000000000000000000000000600082015250565b60006124b26013836123bd565b91506124bd8261247c565b602082019050919050565b600060208201905081810360008301526124e1816124a5565b9050919050565b7f5468652076616c7565206d7573742062652067726561746572207468616e203060008201527f2e00000000000000000000000000000000000000000000000000000000000000602082015250565b60006125446021836123bd565b915061254f826124e8565b604082019050919050565b6000602082019050818103600083015261257381612537565b9050919050565b7f596f752061726520746865206f776e6572206f662074686174206974656d2e00600082015250565b60006125b0601f836123bd565b91506125bb8261257a565b602082019050919050565b600060208201905081810360008301526125df816125a3565b9050919050565b7f596f7520617265206e6f7420616c6c6f77656420746f2073656e64206d6f726560008201527f207468616e206f6e65206f6666657220666f7220616e206974656d2e00000000602082015250565b6000612642603c836123bd565b915061264d826125e6565b604082019050919050565b6000602082019050818103600083015261267181612635565b9050919050565b7f4e487b7100000000000000000000000000000000000000000000000000000000600052601160045260246000fd5b60006126b282612132565b91507fffffffffffffffffffffffffffffffffffffffffffffffffffffffffffffffff8214156126e5576126e4612678565b5b600182019050919050565b60006060820190506127056000830186612231565b61271260208301856121da565b61271f6040830184612231565b949350505050565b7f5265656e7472616e637947756172643a207265656e7472616e742063616c6c00600082015250565b600061275d601f836123bd565b915061276882612727565b602082019050919050565b6000602082019050818103600083015261278c81612750565b9050919050565b7f4f6666657220646f65736e27742065786973742e000000000000000000000000600082015250565b60006127c96014836123bd565b91506127d482612793565b602082019050919050565b600060208201905081810360008301526127f8816127bc565b9050919050565b7f596f7520617265206e6f7420746865206f776e6572206f66207468617420746f60008201527f6b656e2e00000000000000000000000000000000000000000000000000000000602082015250565b600061285b6024836123bd565b9150612866826127ff565b604082019050919050565b6000602082019050818103600083015261288a8161284e565b9050919050565b7f4e487b7100000000000000000000000000000000000000000000000000000000600052601260045260246000fd5b60006128cb82612132565b91506128d683612132565b9250826128e6576128e5612891565b5b828204905092915050565b60006128fc82612132565b915061290783612132565b9250817fffffffffffffffffffffffffffffffffffffffffffffffffffffffffffffffff04831182151516156129405761293f612678565b5b828202905092915050565b600061295682612132565b915061296183612132565b92508282101561297457612973612678565b5b828203905092915050565b600061298a82612132565b915061299583612132565b9250827fffffffffffffffffffffffffffffffffffffffffffffffffffffffffffffffff038211156129ca576129c9612678565b5b828201905092915050565b60006060820190506129ea60008301866121da565b6129f760208301856121da565b612a046040830184612231565b949350505050565b600060c082019050612a216000830189612231565b612a2e60208301886121da565b612a3b6040830187612231565b612a486060830186612231565b612a5560808301856121da565b612a6260a08301846121da565b979650505050505050565b7f4974656d20697320616c7265616479206c69737465642e000000000000000000600082015250565b6000612aa36017836123bd565b9150612aae82612a6d565b602082019050919050565b60006020820190508181036000830152612ad281612a96565b9050919050565b7f5072696365206d7573742062652067726561746572207468616e20302e000000600082015250565b6000612b0f601d836123bd565b9150612b1a82612ad9565b602082019050919050565b60006020820190508181036000830152612b3e81612b02565b9050919050565b6000608082019050612b5a6000830187612231565b612b6760208301866121da565b612b746040830185612231565b612b816060830184612231565b95945050505050565b7f436f6c6c656374696f6e20646f65736e27742065786973742e00000000000000600082015250565b6000612bc06019836123bd565b9150612bcb82612b8a565b602082019050919050565b60006020820190508181036000830152612bef81612bb3565b9050919050565b7f546f6b656e277320616c7265616479206265656e2061646465642e0000000000600082015250565b6000612c2c601b836123bd565b9150612c3782612bf6565b602082019050919050565b60006020820190508181036000830152612c5b81612c1f565b9050919050565b7f436f6c6c656374696f6e20616c7265616479206578697374732e000000000000600082015250565b6000612c98601a836123bd565b9150612ca382612c62565b602082019050919050565b60006020820190508181036000830152612cc781612c8b565b9050919050565b7f4974656d206973206e6f7420666f722073616c652e0000000000000000000000600082015250565b6000612d046015836123bd565b9150612d0f82612cce565b602082019050919050565b60006020820190508181036000830152612d3381612cf7565b9050919050565b7f496e73756666696369656e742066756e64732e00000000000000000000000000600082015250565b6000612d706013836123bd565b9150612d7b82612d3a565b602082019050919050565b60006020820190508181036000830152612d9f81612d63565b9050919050565b7f596f752063616e206e6f742062757920796f7572206f776e206974656d2e0000600082015250565b6000612ddc601e836123bd565b9150612de782612da6565b602082019050919050565b60006020820190508181036000830152612e0b81612dcf565b9050919050565b7f4f776e61626c653a206e6577206f776e657220697320746865207a65726f206160008201527f6464726573730000000000000000000000000000000000000000000000000000602082015250565b6000612e6e6026836123bd565b9150612e7982612e12565b604082019050919050565b60006020820190508181036000830152612e9d81612e61565b905091905056fea264697066735822122059dea20e23df11b124ef54a85d1f4298164cff065b517891b6bcda7a2c7e978f64736f6c634300080c0033",
  "linkReferences": {},
  "deployedLinkReferences": {}
}